:1009960020200020202D20202D20200020203A205D
:0509A600203A202000B2
:1006260012050DE518FB3395E0FA750C027D017F86
:100636000112094CE519FB3395E0FA750C027D04AD
:100646007F0112094CE51AFB3395E0FA750C027D21
:10065600077F0112094CE51BFB3395E0FA750C0286
:100666007D017F0212094CE51CFB3395E0FA750CFF
:10067600027D047F0212094CE51DFB3395E0FA75F5
:090686000C027D077F0202094C01
:10000E00E524B4020B0521E52175F0068485F02167
:10001E00E524640360030200E874182521F806D372
:10002E00E518648094E34003E4F518D3E519648081
:10003E00948C4003751901E51964016023E5196478
:10004E0003601DE51964056017E51964076011E585
:10005E00196408600BE519640A6005E519B40C0B08
:10006E00D3E51A6480949F404D8048E5196404607E
:10007E0011E5196406600BE51964096005E519B40C
:10008E000B0BD3E51A6480949E402B8026E519B4A1
:10009E000224E51875F004120457AFF0EF700BD37D
:1000AE00E51A6480949D400E8009D3E51A6480940D
:1000BE009C4003751A01D3E51B648094974003E4BA
:1000CE00F51BD3E51C648094BB4003E4F51CD3E51B
:1000DE001D648094BB4003E4F51DE52464046003B5
:1000EE000201E374182521F816C3E5186480948084
:1000FE005003751863C3E519648094815003751914
:10010E000CE51964016023E5196403601DE51964AB
:10011E00056017E51964076011E5196408600BE5C1
:10012E0019640A6005E519B40C17C3E51A648094C6
:10013E00815003751A1FD3E51A6480949F40728014
:10014E006DE51964046011E5196406600BE5196428
:10015E00096005E519B40B17C3E51A648094815044
:10016E0003751A1ED3E51A6480949E4044803FE5C1
:10017E00196402703CE51875F004120457AFF0EFE5
:10018E007017C3E51A648094815003751A1DD3E568
:10019E001A6480949D401A8015C3E51A6480948178
:1001AE005003751A1CD3E51A6480949C4003751A8B
:1001BE0001C3E51B648094815003751B17C3E51CB6
:1001CE00648094805003751C3BC3E51D648094804D
:1001DE005003751D3BE5217014E523B4010F7BFF21
:1001EE007A0979967D017F0112090B8011E518FBC2
:1001FE003395E0FA750C027D017F0112094CE52161
:10020E00B40114E523B4010F7BFF7A0979967D04BE
:10021E007F0112090B8011E519FB3395E0FA750C7D
:10022E00027D047F0112094CE521B40214E523B4CA
:10023E00010F7BFF7A0979967D077F0112090B80EA
:10024E0011E51AFB3395E0FA750C027D077F01125A
:10025E00094CE521B40314E523B4010F7BFF7A09A1
:10026E0079967D017F0212090B8011E51BFB3395F8
:10027E00E0FA750C027D017F0212094CE521B404EF
:10028E0014E523B4010F7BFF7A0979967D047F0272
:10029E0012090B8011E51CFB3395E0FA750C027DFB
:1002AE00047F0212094CE521B40512E523B4010DB9
:1002BE007BFF7A0979967D077F0202090BE51DFB0C
:0F02CE003395E0FA750C027D077F0212094C226E
:10074C001209C01200031209697BFF7A0979997D9D
:10075C00017F0112090B7BFF7A0979A27D017F02CF
:10076C0012090B1202DD12068F8F24E524B4011638
:10077C00E5227007752201F521800BE522B40106F4
:10078C00E4F5221202DDE5221460080470D812068A
:08079C002680D312000E80CE6E
:03000B000207F2F7
:0907F200C0E0C0D075D000C007C2
:1007FB000520E5207002051F758A18758CFCC3E572
:10080B002094F4E51F94014012751F00752000E53C
:0B081B002370047F0180027F008F2308
:07082600D007D0D0D0E03272
:0609D400C2A58F80D2A72E
:0809DA007F027EEFDEFEDFFC70
:0109E20022F2
:0A09E300C2A61209D4C2A70209DA65
:10092E00CFCDCFCECCCE1204B87C007D0A1204B847
:04093E00ED2430FF75
:0A094200D2A61209D4C2A70209DAF6
:10098000AE07BE0104ED148006BE0209ED243F440B
:0609900080FF1209E322C2
:1009C0007F381209E37F0C1209E37F061209E37FE7
:0409D000010209E334
:0A09ED00AC03120980AF04020942B6
:06090B008B088A09890A2D
:10091100120980E4FDAB08AA09A90A8D827583003A
:0C092100120479FF60061209420D80E903
:01092D0022A7
:0C08D8007F0AEA24FFFDE434FFFC7E00F0
:0808E4008E0D8F0E8C0F8D109C
:1008EC007F017E00E4FBEBC39510E50F6480F87488
:0E08FC008098500AAC0DAD0E1204A60B80E8D9
:01090A0022CA
:04094C008A0A8B0B7D
:10095000120980AA0CEAD39400400D1208D8AC0A00
:08096000AD0B12092E1A80ED07
:01096800226C
:10082D00120980C3EA64809480400B7F2B12094229
:10083D008A168B17800E7F2D120942C3E49BF51784
:10084D00E49AF516AA15EAD39400400D1208D8AC17
:09085D0016AD1712092E1A80EDE8
:01086600226F
:040867008A278B2829
:10086B00120980AA29EAD3940040297F101208DAD2
:10087B00AC27AD28CFCDCFCECCCE1204B8EF540FD2
:10088B00FEC3940AEE5004243080022437FF120971
:04089B00421A80D1AC
:01089F002236
:0408A0008A2C8B2DE6
:1008A400120980AA2EEAD394004028EA24FFFDE42A
:1008B40034FFFC7F027E001208E4AC2CAD2DCFCDBA
:1008C400CFCECCCE1204B8EF54012430FF1209422B
:0308D4001A80D2B5
:0108D70022FE
:0909F700071818071E173B370111
:05000300C2B5C2B622E7
:0506F0002DFDEE3CFCB5
:0606F5008C088D09AB0723
:1006FB00D2B5E4FD74017E00A805088005C333CE96
:10070B0033CED8F9FFEBF582EF558224FF92B4D2AA
:10071B00B6C2B60DBD08DDE4FD74017E00A8050868
:10072B008005C333CE33CED8F9FFE5085EFEE5096D
:10073B005F4E24FF92B4D2B6C2B60DBD08DBC2B574
:01074B00228B
:0207A400AD079F
:1007A600E4F9430501D2B5FB74017E00A803088075
:1007B60005C333CE33CED8F9FFEDF582EF5582244B
:1007C600FF92B4C2B6D2B60BBB08DDE4FBD2B6C20A
:1007D600B630B40D7401A803088002C333D8FC42B6
:0B07E600010BBB08E8C2B5C2B4AF01B4
:0107F10022E5
:1002DD00E4FDFC7F8E1206F5E51875F00A12045741
:1002ED00FF3395E0FEEFC4F8540FC868FFEEC45419
:1002FD00F048FEE51875F00A120457ADF0ED339590
:10030D00E0FCEF7F8C1206F0E51975F00A12045728
:10031D00FF3395E0FEEFC4F8540FC868FFEEC454E8
:10032D00F048FEE51975F00A120457ADF0ED33955E
:10033D00E0FCEF7F881206F0E51A75F00A120457FB
:10034D00FF3395E0FEEFC4F8540FC868FFEEC454B8
:10035D00F048FEE51A75F00A120457ADF0ED33952D
:10036D00E0FCEF2DFDEE3CFC7F861206F5E51B75DE
:10037D00F00A120457FF3395E0FEEFC4F8540FC88E
:10038D0068FFEEC454F048FEE51B75F00A120457E1
:10039D00ADF0ED3395E0FCEF2DFDEE3CFC7F8412CE
:1003AD0006F5E51C75F00A120457FF3395E0FEEFD4
:1003BD00C4F8540FC868FFEEC454F048FEE51C7530
:1003CD00F00A120457ADF0ED3395E0FCEF2DFDEE84
:1003DD003CFC7F821206F5E51D75F00A120457FFED
:1003ED003395E0FEEFC4F8540FC868FFEEC454F027
:1003FD0048FEE51D75F00A120457ADF0ED3395E09A
:10040D00FCEF2DFDEE3CFC7F801206F5E51E75F030
:10041D000A120457FF3395E0FEEFC4F8540FC86875
:10042D00FFEEC454F048FEE51E75F00A120457ADF8
:10043D00F0ED3395E0FCEF2DFDEE3CFC7F8A1206CE
:0A044D00F57D807C007F8E0206F52D
:10050D007F8C1207A4EFC4540F75F00AA4FEEF54AC
:10051D000F2EF5187F881207A4EFC4540F75F00A3B
:10052D00A4FEEF540F2EF5197F861207A4EFC454C5
:10053D000F75F00AA4FEEF540F2EF51A7F841207E3
:10054D00A4EFC4540F75F00AA4FEEF540F2EF51B43
:10055D007F821207A4EFC4540F75F00AA4FEEF5466
:10056D000F2EF51C7F801207A4EFC4540F75F00AEF
:10057D00A4FEEF540F2EF51D7F8A1207A4EFC4546D
:0C058D000F75F00AA4FEEF540F2EF51EAF
:01059900223F
:1009AB00EF1FAC0670011E4C600A7D027CEFDCFE73
:0409BB00DDFC80ECF3
:0109BF002215
:10068F00E4F50820B1137F14FE1209AB30B1FD7FE2
:10069F00147E001209AB75080120B0147F147E0080
:1006AF001209AB30B0FD7F147E001209AB75080242
:1006BF0020B2147F147E001209AB30B2FD7F147E7E
:1006CF00001209AB75080320B3147F147E001209C2
:1006DF00AB30B3FD7F147E001209AB750804AF0871
:0106EF0022E8
:100969005389F0438901758A18758CFCC28DD28C24
:07097900D2A9D2AFC2B922DE
:0300000002059A5C
:0C059A00787FE4F6D8FD75812E0205E1A3
:10045700C2D530F707B2D563F0FF05F030E70CB22D
:10046700D5F4048463F0FF05F080018430D502F4ED
:0204770004225D
:10047900BB010CE58229F582E5833AF583E0225038
:1004890006E92582F8E622BBFE06E92582F8E22282
:0D049900E58229F582E5833AF583E493229C
:1004A600EF8DF0A4A8F0CF8CF0A428CE8DF0A42E6A
:0204B600FE2224
:1004B800BC000BBE0029EF8DF084FFADF022E4CC28
:1004C800F875F008EF2FFFEE33FEEC33FCEE9DECF1
:1004D800984005FCEE9DFE0FD5F0E9E4CEFD22ED37
:1004E800F8F5F0EE8420D21CFEADF075F008EF2F81
:1004F800FFED33FD4007985006D5F0F222C398FD72
:050508000FD5F0EA220E
:1005A60002074CE493A3F8E493A34003F68001F218
:1005B60008DFF48029E493A3F85407240CC8C33356
:1005C600C4540F4420C8834004F456800146F6DF25
:1005D600E4800B01020408102040809009F7E47EB5
:1005E600019360BCA3FF543F30E509541FFEE4931A
:1005F600A360010ECF54C025E060A840B8E493A3E1
:10060600FAE493A3F8E493A3C8C582C8CAC583CA0B
:10061600F0A3C8C582C8CAC583CADFE9DEE780BEC3
:010A000000F5
:00000001FF
